:0300000002008576
:0C008500787FE4F6D8FD758109020003C5
:10007100C0F9A4B0999282F880908883C6A1868E37
:04008100FEFDFBF78E
:10005900E4FDFCC3ED9FEE6480F8EC6480985007E2
:070069000DBD00010C80EC4D
:01007000226D
:10000300D2A5E4F508F509E4FBFA74812BF58274B3
:10001300003AF583E493F5A074712509F582740021
:100023003508F583E493F5807FE87E031200590BCE
:10003300BB00010AEB64044A70D07F407E9C12002F
:10004300590509E50970020508C39410E5086480A1
:06005300948040B380AA76
:00000001FF
