:0300000002012BCF
:0C012B00787FE4F6D8FD75810C020172AB
:080003000E0C0D090B030706AA
:09025C0004090000000001080083
:10024000D2AF758901758CF8758ACDD2A9D28C7F11
:0C025000687E017D007C0012022080FE10
:10022000C2AFE47B687A01F9F8120099E4FB7A1016
:10023000F9F812000E8F0C8E0B8D0A8C09D2AF22AA
:03000B000201B738
:1001B700C0E0C083C082C0D075D000C004C005C0F5
:0301C70006C00768
:1001CA00758CF8758ACDAF0CAE0BAD0AAC09EC4D47
:1001DA004E4F602EAF905307F0E50890000393420C
:1001EA00078F900508530807E50C24FFF50CE50B6B
:1001FA0034FFF50BE50A34FFF50AE50934FFF50982
:05020A00800343900F8A
:10020F00D007D006D005D004D0D0D082D083D0E094
:01021F0032AC
:10013700020240E493A3F8E493A34003F68001F29C
:1001470008DFF48029E493A3F85407240CC8C333C9
:10015700C4540F4420C8834004F456800146F6DF98
:10016700E4800B010204081020408090025CE47ECA
:10017700019360BCA3FF543F30E509541FFEE4938D
:10018700A360010ECF54C025E060A840B8E493A354
:10019700FAE493A3F8E493A3C8C582C8CAC583CA7F
:1001A700F0A3C8C582C8CAC583CADFE9DEE780BE37
:010265000098
:10000E00E88FF0A4CC8BF0A42CFCE98EF0A42CFC91
:10001E008AF0EDA42CFCEA8EF0A4CDA8F08BF0A40F
:10002E002DCC3825F0FDE98FF0A42CCD35F0FCEB6E
:10003E008EF0A4FEA9F0EB8FF0A4CFC5F02ECD3933
:0F004E00FEE43CFCEAA42DCE35F0FDE43CFC22A0
:10005D0075F008758200EF2FFFEE33FECD33CDCC5A
:10006D0033CCC58233C5829BED9AEC99E5829840DD
:10007D000CF582EE9BFEED9AFDEC99FC0FD5F0D6BA
:10008D00E4CEFBE4CDFAE4CCF9A88222B800C1B9E4
:10009D000059BA002DEC8BF084CFCECDFCE5F0CB22
:1000AD00F97818EF2FFFEE33FEED33FDEC33FCEB5B
:1000BD0033FB10D703994004EB99FB0FD8E5E4F916
:1000CD00FA227818EF2FFFEE33FEED33FDEC33FC03
:1000DD00C933C910D7059BE99A4007EC9BFCE99AF7
:1000ED00F90FD8E0E4C9FAE4CCFB2275F010EF2F3C
:1000FD00FFEE33FEED33FDCC33CCC833C810D7073C
:10010D009BEC9AE899400AED9BFDEC9AFCE899F876
:0E011D000FD5F0DAE4CDFBE4CCFAE4C8F92209
:00000001FF
