:0300000002000EED
:0C000E00787FE4F6D8FD758120020055D3
:10013C00010A00010E00010D08010C08C102C103E7
:0B014C00C180C181010B00020800000F
:1001A400758901758A66758CFCD28CD2A9D2AF226E
:10015800C203C202300004C290D291300104C2929C
:03016800D293220D
:10016B00C203C202300004D290C291300104D29279
:03017B00C293220A
:10017E00C203D202300004C290D291300104C29266
:03018E00D29322E7
:10019100D203C202300004C290D291300104C29253
:0301A100D29322D4
:0D01B400C203C202D290D291D293D2922205
:1000F80030031CE50AD3950D5004D2008006D29037
:10010800D291C200E50AC394144006E4F50A22D24B
:020118000022C3
:10011A0030021CE50ED3950C5004D2018006C201B0
:10012A00D292D293E50EC394144006E4F50E22D27D
:02013A000122A0
:03000B0002009A56
:04009A00C0E0C0D032
:10009E00758CFC758A66050A050E1200F812011A97
:1000AE000509E50970020508C394D0E508940740D8
:0900BE0008050B75080075090026
:0500C700D0D0D0E032B2
:1000CC001201A4E50B24FE600F14601114601324BC
:1000DC0003701412016B80EB12015880E61201912F
:0C00EC0080E112017E80DC1201B480D79C
:10001A000200CCE493A3F8E493A34003F68001F230
:10002A0008DFF48029E493A3F85407240CC8C333E7
:10003A00C4540F4420C8834004F456800146F6DFB6
:10004A00E4800B010204081020408090013CE47E09
:10005A00019360BCA3FF543F30E509541FFEE493AB
:10006A00A360010ECF54C025E060A840B8E493A372
:10007A00FAE493A3F8E493A3C8C582C8CAC583CA9D
:10008A00F0A3C8C582C8CAC583CADFE9DEE780BE55
:0101570000A7
:00000001FF
