:030000000203E315
:0C03E300787FE4F6D8FD75812002016EE1
:1000CD008B0A8A0B890C8C0D8D0EC3E50D64809403
:1000DD0080500FC3E4950EF50EE4950DF50D742DBE
:1000ED008008AB0AAA0BA90C7420120030AE0DAF1C
:1000FD000E7C007D64120042EF2430FFAB0A050C2C
:10010D00E50C7002050BF9AA0BEF120030AE0DAF26
:10011D000E7C007D641200428C0D8D0EAE0DAF0E67
:10012D007C007D0A120042EF2430FFAB0A050CE57E
:10013D000C7002050BF9AA0BEF120030AE0DAF0ECD
:10014D007C007D0A1200428C0D8D0EE50E2430FFD1
:10015D00AB0A050CE50C7002050BF9AA0BEF0200BA
:01016D003061
:1002D800E4FDFCC3ED9FEC9E5015E4FBFA0BBB005C
:0F02E800010AEB64794A70F50DBD00010C80E44A
:0102F70022E4
:100211007D017F3812037E7D017F0812037E7D01FF
:100221007F0112037E7D017F0612037E7D017F0C1B
:1002310012037E7B41E4FDFF1202F87B477D01E45E
:04024100FF0202F8BE
:100393007580FFC2A0D2A100D2A20000E58020E7B1
:0403A300FBC2A222D5
:10037E00ED6003120393C2A0C2A1008F8000D2A22F
:05038E000000C2A222E4
:1003A700120393D2A0C2A1008F8000D2A20000C284
:0203B700A22280
:1002F800AE07AC0353050153060FED6003430640F8
:0F030800430680AF06E4FD12037EAF040203A795
:0A01D3008F0A8D0B8B0C8A0D890E2C
:1001DD00E4F511530B01530A0FE5101510AE0F7016
:1001ED0002150F4E601DAB0CAA0DA90E851182755F
:1001FD008300120003FBAD0BAF0A1202F8051105C7
:03020D000A80D68E
:0102100022CB
:1003350000000000000000000000000000000000B8
:090345000000000000000000228D
:0F03B900D291D290120335C291120335C2902215
:0C03EF00C291D290120335D29102033566
:0E03C800A2009291D290120335C2900203352A
:0D03D600D290120335A291C290120335227D
:10034E00E4FEEF25E0FF9291D290120335C2901297
:09035E0003350EBE08EC0203D6C3
:10031700E4FFD291FEEF25E0FFD290120335A291C0
:0D032700E4334207C2901203350EBE08E811
:0103340022A6
:10036700AC071203B97FD012034EAF0412034EAF8E
:070377000512034E0203EF23
:02027000AD07D8
:100272001203B97FD012034EAF0512034E1203B917
:100282007FD112034E120317D2001203C81203EFDA
:010292002249
:1002B600E4FD7F6B1203677D077F191203671D7FBD
:1002C6001A1203677D187F1B1203677D017F1C02CC
:0202D6000367BC
:02029300AC07B6
:10029500120270AB07EC04FF120270AD07AF03EF5B
:1002A5003395E0EFFEED3395E0FCE42DFFEE3CFEEB
:0102B5002226
:100245008D088B097C007D401200427B007A007985
:1002550014AD07AC061200CD7B007A007914750F3A
:0B02650000751004AD09AF080201D3C2
:10016E007FF47E011202D81202111202B67F967E21
:10017E00001202D87F3B120293E4FB7D021202456D
:10018E007F3D120293E4FB7D071202457F3F120270
:10019E0093E4FB7D0C1202457F431202937B017D9B
:1001AE00021202457F451202937B017D0712024522
:1001BE007F471202937B017D0C1202457FF47E0174
:0501CE001202D880AF11
:10000300BB010CE58229F582E5833AF583E02250B2
:1000130006E92582F8E622BBFE06E92582F8E222FC
:0D002300E58229F582E5833AF583E4932216
:10003000BB010689828A83F0225002F722BBFE01AF
:02004000F322A9
:10004200C2D5EC30E709B2D5E4C39DFDE49CFCEED9
:1000520030E715B2D5E4C39FFFE49EFE120078C3D9
:10006200E49DFDE49CFC800312007830D507C3E4D4
:060072009FFFE49EFE2248
:10007800BC000BBE0029EF8DF084FFADF022E4CC6C
:10008800F875F008EF2FFFEE33FEEC33FCEE9DEC35
:10009800984005FCEE9DFE0FD5F0E9E4CEFD22ED7B
:1000A800F8F5F0EE8420D21CFEADF075F008EF2FC5
:1000B800FFED33FD4007985006D5F0F222C398FDB6
:0500C8000FD5F0EA2253
:00000001FF
