:0300000002010DED
:0C010D00787FE4F6D8FD758111020154E2
:090017004C3A00523A004D3A0047
:0D02DF00010E0005080000000000010D00E8
:10021700D2AF7F007E961202731200037BFF7A0033
:100227007917E4FDFF12024B7BFF7A00791AE4FD90
:100237007F0812024B7BFF7A00791D7D01E4FF12D4
:04024700024B80FEE8
:10029B007580FFC2A6D2B6D2A7AF80C2A7EF20E768
:0102AB00F65C
:0102AC00222F
:1002BF00AE0712029BC2A6C2B68E80D2A7C2A722D9
:1002CF00AE0712029BD2A6C2B68E80D2A7C2A722B9
:1002AD00ED7004AC078004EF2440FCEC4480FF02A9
:0202BD0002BF7E
:10024B008B0F8A1089111202ADAB0FAA10A91112D4
:10025B00002660130511E5117002051014F9120048
:08026B0026FF1202CF80E222FF
:100003007F381202BF7F0C1202BF7F061202BF7F2E
:04001300010202BF25
:1002730075985053890F438920AB07AA06E4F9F810
:100283007F807E70FDFC120199EFF404F58D858D5E
:080293008BC2ABD2ACD28E226B
:030023000201DDFA
:0B01DD00C0E0C0D075D000C000C0071B
:1001E80030981EC29885990E850E99AF0D050D742D
:1001F800082FF8A60EC3E50D648094844003750D9E
:0602080000309902C299CA
:09020E00D007D000D0D0D0E032BE
:10011900020217E493A3F8E493A34003F68001F2E3
:1001290008DFF48029E493A3F85407240CC8C333E7
:10013900C4540F4420C8834004F456800146F6DFB6
:10014900E4800B01020408102040809002DFE47E65
:10015900019360BCA3FF543F30E509541FFEE493AB
:10016900A360010ECF54C025E060A840B8E493A372
:10017900FAE493A3F8E493A3C8C582C8CAC583CA9D
:10018900F0A3C8C582C8CAC583CADFE9DEE780BE55
:0102EC000011
:10002600BB010689828A83E0225002E722BBFE02D8
:09003600E32289828A83E493220B
:10019900C2D5E830E70FB2D5E4C39BFBE49AFAE491
:1001A90099F9E498F8EC30E717B2D51201CF1200AB
:1001B9007BE4C39BFBE49AFAE499F9E498F8800399
:1001C90012007B30D50DE4C39FFFE49EFEE49DFD44
:0401D900E49CFC2284
:10003F0075F008758200EF2FFFEE33FECD33CDCC78
:10004F0033CCC58233C5829BED9AEC99E5829840FB
:10005F000CF582EE9BFEED9AFDEC99FC0FD5F0D6D8
:10006F00E4CEFBE4CDFAE4CCF9A88222B800C1B902
:10007F000059BA002DEC8BF084CFCECDFCE5F0CB40
:10008F00F97818EF2FFFEE33FEED33FDEC33FCEB79
:10009F0033FB10D703994004EB99FB0FD8E5E4F934
:1000AF00FA227818EF2FFFEE33FEED33FDEC33FC21
:1000BF00C933C910D7059BE99A4007EC9BFCE99A15
:1000CF00F90FD8E0E4C9FAE4CCFB2275F010EF2F5A
:1000DF00FFEE33FEED33FDCC33CCC833C810D7075A
:1000EF009BEC9AE899400AED9BFDEC9AFCE899F895
:0E00FF000FD5F0DAE4CDFBE4CCFAE4C8F92228
:00000001FF
