:030000000200F407
:0C00F400787FE4F6D8FD75812002013B06
:10027B00020E0000010C00010D00C100010B010278
:06028B00080000010AFF5B
:10020D00D201D2AF1202647F807E2512023C3000F3
:10021D000312000EA201E433650B60F22001080504
:0F022D000FE50F7002050EE50B24FF920180DF35
:0B000E00C200850F99E4F50EF50F22EB
:10026400750CFE750D8F5389F0438901850C8C85BF
:070274000D8AD2A9D28C22F1
:10023C0075985053890F438920AB07AA06E4F9F847
:10024C007F807E70FDFC1201C9EFF404F58D858D65
:08025C008BC2ABD2ACD28E22A2
:03000B000201806F
:09018000C0E0C0D075D000C0073A
:10018900850C8C850D8AE50A25E0FFA281E4334FB1
:10019900F50A7004F50B8008E50AB4FF03750B0135
:1001A9000509E50970020508C394C4E508940940E6
:0901B90008750800750900D20068
:0701C200D007D0D0D0E032DD
:0300230002029244
:0B029200309802C298309902C29932E5
:1001000002020DE493A3F8E493A34003F68001F206
:1001100008DFF48029E493A3F85407240CC8C33300
:10012000C4540F4420C8834004F456800146F6DFCF
:10013000E4800B010204081020408090027BE47EE2
:10014000019360BCA3FF543F30E509541FFEE493C4
:10015000A360010ECF54C025E060A840B8E493A38B
:10016000FAE493A3F8E493A3C8C582C8CAC583CAB6
:10017000F0A3C8C582C8CAC583CADFE9DEE780BE6E
:01029100006C
:1001C900C2D5E830E70FB2D5E4C39BFBE49AFAE461
:1001D90099F9E498F8EC30E717B2D51201FF12004B
:1001E90062E4C39BFBE49AFAE499F9E498F8800382
:1001F90012006230D50DE4C39FFFE49EFEE49DFD2D
:04020900E49CFC2253
:1000260075F008758200EF2FFFEE33FECD33CDCC91
:1000360033CCC58233C5829BED9AEC99E582984014
:100046000CF582EE9BFEED9AFDEC99FC0FD5F0D6F1
:10005600E4CEFBE4CDFAE4CCF9A88222B800C1B91B
:100066000059BA002DEC8BF084CFCECDFCE5F0CB59
:10007600F97818EF2FFFEE33FEED33FDEC33FCEB92
:1000860033FB10D703994004EB99FB0FD8E5E4F94D
:10009600FA227818EF2FFFEE33FEED33FDEC33FC3A
:1000A600C933C910D7059BE99A4007EC9BFCE99A2E
:1000B600F90FD8E0E4C9FAE4CCFB2275F010EF2F73
:1000C600FFEE33FEED33FDCC33CCC833C810D70773
:1000D6009BEC9AE899400AED9BFDEC9AFCE899F8AE
:0E00E6000FD5F0DAE4CDFBE4CCFAE4C8F92241
:00000001FF
