:03000000020254A5
:0C025400787FE4F6D8FD75811002029B53
:0C03AA00010D00010E00010F0001100009
:10014100D2AF7D051202E0900000AF82AE83E4FCE5
:10015100FD7B407A9CF9F8D312012B4003A380EA7E
:100161001200037D0F1202E0E4F583F582AF82AE47
:1001710083E4FCFD7B407A9CF9F8D312012B400308
:10018100A380EA1200037D191202E0E4F583F582EF
:10019100AF82AE83E4FCFD7B407A9CF9F8D3120177
:1001A1002B4003A380EA1200037D231202E0E4F551
:1001B10083F582AF82AE83E4FCFD7B407A9CF9F843
:1001C100D312012B4003A380EA1200037D2D1202FA
:1001D100E0E4F583F582AF82AE83E4FCFD7B407AF7
:1001E1009CF9F8D312012B4003A380EA1200037D8E
:1001F100371202E0E4F583F582AF82AE83E4FCFDC1
:100201007B407A9CF9F8D312012B4003A380EA12B8
:1002110000037D411202E0E4F583F582AF82AE83F3
:10022100E4FCFD7B407A9CF9F8D312012B4003A337
:1002310080EA120003E4F583F582AF82AE83E4FC29
:10024100FD7B407A9CF9F8D312012B500302014344
:03025100A380E7A0
:0402E0007F647E00B9
:0202E4008D0883
:1002E600AB07AA06E4F9F8FF7E107D0EFC12035157
:1002F6008F0C8E0B8D0A8C09AF08E4FCFDFEAB0C4F
:10030600AA0BA90AA80912000EE47B64FAF9F812EE
:100316000099AD07AC06C3E50C9DFFE50B9CAB074A
:10032600FAC3740C9DFDE49CFCC3740C9BFBE49A1D
:100336008C0D8D0EF50F8B105389F0438901850DB9
:0A0346008C850E8AD2A9D28CD297C2
:01035000228A
:07000300C28CC2A9D29722B2
:03000B0002039558
:10039500309709850F8C85108AC29732850D8C851B
:0503A5000E8AD2973220
:10026000020141E493A3F8E493A34003F68001F272
:1002700008DFF48029E493A3F85407240CC8C3339F
:10028000C4540F4420C8834004F456800146F6DF6E
:10029000E4800B01020408102040809003AAE47E51
:1002A000019360BCA3FF543F30E509541FFEE49363
:1002B000A360010ECF54C025E060A840B8E493A32A
:1002C000FAE493A3F8E493A3C8C582C8CAC583CA55
:1002D000F0A3C8C582C8CAC583CADFE9DEE780BE0D
:0103B6000046
:10000E00E88FF0A4CC8BF0A42CFCE98EF0A42CFC91
:10001E008AF0EDA42CFCEA8EF0A4CDA8F08BF0A40F
:10002E002DCC3825F0FDE98FF0A42CCD35F0FCEB6E
:10003E008EF0A4FEA9F0EB8FF0A4CFC5F02ECD3933
:0F004E00FEE43CFCEAA42DCE35F0FDE43CFC22A0
:10005D0075F008758200EF2FFFEE33FECD33CDCC5A
:10006D0033CCC58233C5829BED9AEC99E5829840DD
:10007D000CF582EE9BFEED9AFDEC99FC0FD5F0D6BA
:10008D00E4CEFBE4CDFAE4CCF9A88222B800C1B9E4
:10009D000059BA002DEC8BF084CFCECDFCE5F0CB22
:1000AD00F97818EF2FFFEE33FEED33FDEC33FCEB5B
:1000BD0033FB10D703994004EB99FB0FD8E5E4F916
:1000CD00FA227818EF2FFFEE33FEED33FDEC33FC03
:1000DD00C933C910D7059BE99A4007EC9BFCE99AF7
:1000ED00F90FD8E0E4C9FAE4CCFB2275F010EF2F3C
:1000FD00FFEE33FEED33FDCC33CCC833C810D7073C
:10010D009BEC9AE899400AED9BFDEC9AFCE899F876
:0E011D000FD5F0DAE4CDFBE4CCFAE4C8F92209
:10035100C2D5E830E70FB2D5E4C39BFBE49AFAE4D7
:1003610099F9E498F8EC30E717B2D5120387120037
:1003710099E4C39BFBE49AFAE499F9E498F88003C1
:1003810012009930D50DE4C39FFFE49EFEE49DFD6C
:04039100E49CFC22CA
:10012B00EB9FF5F0EA9E42F0E99D42F0EC6480C84B
:06013B0064809845F022EB
:00000001FF
