:0300000002007D7E
:0C007D00787FE4F6D8FD758108020003CE
:10000300120052120061E4FF1200707F147E00128E
:1000130000237F011200707F147E0012002380E60C
:0D0070008F08120089AF0812003E020089BF
:10003E00EF4488F5BC00000000E5BC30E4FB53BC87
:04004E00EFAFBD2231
:0F00520075985A758920758BFB758DFBD28E22A0
:0F006100759D03E4F5BD75BC807F02FE02002390
:080089003099FDC2998F992204
:10002300EF1FAA0670011E4A60107C137D88ED1D28
:0A003300AA0470011C4A60E880F482
:01003D0022A0
:00000001FF
