:030000000202EE0B
:0C02EE00787FE4F6D8FD7581130203351B
:0E040500C0F9A4B0999282F88090FEFDFBF73A
:1003F400040BFFFFFFFF010F0001080002090000CA
:10000E00E4F513F512F511F510758901758CFC7573
:10001E008A66D28CD2AFD2A9E50FB401FBE4F50FFC
:10002E00E5132401F513E43512F512E43511F5113B
:10003E00E43510F510E47B0AFAF9F8AF13AE12AD01
:10004E0011AC1012024BE4FBFAF9F8C31202DD7088
:10005E00217B0AF8AF13AE12AD11AC1012024B7425
:10006E00052BF58274043AF583E493F50B750CFFBA
:10007E008060E47B64FAF9F8AF13AE12AD11AC10E8
:10008E0012024BE4FBFAF9F8C31202DD704A7B0A46
:10009E00F8AF13AE12AD11AC1012024B74052BF566
:1000AE008274043AF583E493F50BE47B0AFAF9F8CB
:1000BE00AF13AE12AD11AC1012024BE47B0AFAF97B
:1000CE00F812024B74052BF58274043AF583E4930F
:1000DE00F50C750DFF02016EE47B64FAF9F8AF13AF
:1000EE00AE12AD11AC1012024BE4FBFAF9F8C312CA
:1000FE0002DD70727B0AF8AF13AE12AD11AC1012A6
:10010E00024B74052BF58274043AF583E493F50BD8
:10011E00E47B0AFAF9F8AF13AE12AD11AC1012026D
:10012E004BE47B0AFAF9F812024B74052BF5827434
:10013E00043AF583E493F50CE47B64FAF9F8AF1313
:10014E00AE12AD11AC1012024BE47B0AFAF9F812A2
:10015E00024B74052BF58274043AF583E493F50D86
:10016E00750EFF020026E47B0AFAF9F8AF13AE1201
:10017E00AD11AC1012024B74052BF58274043AF5D6
:10018E0083E493F50BE47B0AFAF9F8AF13AE12ADE4
:10019E0011AC1012024BE47B0AFAF9F812024B74FE
:1001AE00052BF58274043AF583E493F50CE47B6435
:1001BE00FAF9F8AF13AE12AD11AC1012024BE47B8C
:1001CE000AFAF9F812024B74052BF58274043AF50B
:1001DE0083E493F50DE47BE87A03F9F8AF13AE12DE
:1001EE00AD11AC1012024BE47B0AFAF9F812024B75
:1001FE0074052BF58274043AF583E493F50E020030
:01020E0026C9
:03000B0002037A73
:08037A00C0E0C083C082C0D0C6
:10038200758CFC758A66050AE50A70020509C39434
:10039200E8E50994034009750900750A00750F0123
:1003A2007580FFE50814601814602314602E24037E
:1003B2007037900412E493F5A0850B80050880291C
:1003C200900411E493F5A0850C800508801B90042D
:1003D20010E493F5A0850D800508800D90040FE4CC
:0903E20093F5A0850E807508005A
:0903EB00D0D0D082D083D0E032E2
:1002FA0002000EE493A3F8E493A34003F68001F20C
:10030A0008DFF48029E493A3F85407240CC8C33304
:10031A00C4540F4420C8834004F456800146F6DFD3
:10032A00E4800B01020408102040809003F4E47E6C
:10033A00019360BCA3FF543F30E509541FFEE493C8
:10034A00A360010ECF54C025E060A840B8E493A38F
:10035A00FAE493A3F8E493A3C8C582C8CAC583CABA
:10036A00F0A3C8C582C8CAC583CADFE9DEE780BE72
:0104040000F7
:10020F0075F008758200EF2FFFEE33FECD33CDCCA6
:10021F0033CCC58233C5829BED9AEC99E582984029
:10022F000CF582EE9BFEED9AFDEC99FC0FD5F0D606
:10023F00E4CEFBE4CDFAE4CCF9A88222B800C1B930
:10024F000059BA002DEC8BF084CFCECDFCE5F0CB6E
:10025F00F97818EF2FFFEE33FEED33FDEC33FCEBA7
:10026F0033FB10D703994004EB99FB0FD8E5E4F962
:10027F00FA227818EF2FFFEE33FEED33FDEC33FC4F
:10028F00C933C910D7059BE99A4007EC9BFCE99A43
:10029F00F90FD8E0E4C9FAE4CCFB2275F010EF2F88
:1002AF00FFEE33FEED33FDCC33CCC833C810D70788
:1002BF009BEC9AE899400AED9BFDEC9AFCE899F8C3
:0E02CF000FD5F0DAE4CDFBE4CCFAE4C8F92256
:1002DD00EB9FF5F0EA9E42F0E99D42F0E89C45F077
:0102ED0022EE
:00000001FF
