:03000000020149B1
:0C014900787FE4F6D8FD7581200201905B
:0902D800C10002080000010A0047
:10021900D2AF12000E7F807E251202741202B63010
:10022900B2FDD28C20B2FDC28CAE08AF097C007D34
:100239003A1200268F0A850A997FE87E0312029CEA
:0202490080DA59
:1002740075985053890F438920AB07AA06E4F9F80F
:100284007F807E70FDFC1201D5EFF404F58D858D21
:080294008BC2ABD2ACD28E226A
:0F000E005389F0438902758DFF758BFFD2A922AC
:1002B600C281C200D281D28C3000FDC200C28CE461
:0702C600F508F509C28122D1
:03000B0002024BA3
:10024B00C0E0C0D00509E50970020508C39414E5A8
:10025B000894004002D200C3E5099430E508947578
:09026B004002C28CD0D0D0E03278
:10029C007C64EF4E60131CEC60087D0A1DED60F66B
:0902AC0080FAEF1F70EC1E80E9DE
:0102B5002226
:030023000202CD09
:0B02CD00309802C298309902C29932AA
:10015500020219E493A3F8E493A34003F68001F2A5
:1001650008DFF48029E493A3F85407240CC8C333AB
:10017500C4540F4420C8834004F456800146F6DF7A
:10018500E4800B01020408102040809002D8E47E30
:10019500019360BCA3FF543F30E509541FFEE4936F
:1001A500A360010ECF54C025E060A840B8E493A336
:1001B500FAE493A3F8E493A3C8C582C8CAC583CA61
:1001C500F0A3C8C582C8CAC583CADFE9DEE780BE19
:0102E100001C
:10002600BC000BBE0029EF8DF084FFADF022E4CCBE
:10003600F875F008EF2FFFEE33FEEC33FCEE9DEC87
:10004600984005FCEE9DFE0FD5F0E9E4CEFD22EDCD
:10005600F8F5F0EE8420D21CFEADF075F008EF2F17
:10006600FFED33FD4007985006D5F0F222C398FD08
:050076000FD5F0EA22A5
:1001D500C2D5E830E70FB2D5E4C39BFBE49AFAE455
:1001E50099F9E498F8EC30E717B2D512020B120032
:1001F500B7E4C39BFBE49AFAE499F9E498F8800321
:100205001200B730D50DE4C39FFFE49EFEE49DFDCB
:04021500E49CFC2247
:10007B0075F008758200EF2FFFEE33FECD33CDCC3C
:10008B0033CCC58233C5829BED9AEC99E5829840BF
:10009B000CF582EE9BFEED9AFDEC99FC0FD5F0D69C
:1000AB00E4CEFBE4CDFAE4CCF9A88222B800C1B9C6
:1000BB000059BA002DEC8BF084CFCECDFCE5F0CB04
:1000CB00F97818EF2FFFEE33FEED33FDEC33FCEB3D
:1000DB0033FB10D703994004EB99FB0FD8E5E4F9F8
:1000EB00FA227818EF2FFFEE33FEED33FDEC33FCE5
:1000FB00C933C910D7059BE99A4007EC9BFCE99AD9
:10010B00F90FD8E0E4C9FAE4CCFB2275F010EF2F1D
:10011B00FFEE33FEED33FDCC33CCC833C810D7071D
:10012B009BEC9AE899400AED9BFDEC9AFCE899F858
:0E013B000FD5F0DAE4CDFBE4CCFAE4C8F922EB
:00000001FF
