:0300000002006F8C
:0C006F00787FE4F6D8FD758107020003DD
:0E0043007FE87E0312005112009F7FF47E01C1
:10005100D3EF9400EE940040147D707C00ED1D7090
:0D006100011CED4C70F7EF1F70E61E80E3F0
:01006E00226F
:09007B00C290D291C292D29322EC
:09008400D290C291C293D29222E3
:09008D00C290D291D293D29222CA
:09009600D290D291D293C29222C1
:09009F00D290D291D293D29222A8
:0900A800C290D291C293D29222BF
:0900B100D290C291D293C29222B6
:100003007FD07E0712005112008412004312007B3E
:100013001200431200967FE87E0312005112008DF6
:100023007FE87E031200511200A87FD07E071200E2
:10003300511200B17FD07E0712005112009F80FE43
:00000001FF
