:030000000200B447
:0C00B400787FE4F6D8FD7581100200FB97
:0E022300C0F9A4B0999282F88090FEFDFBF71E
:10020F00040BFFFFFFFF011000010F0001080002A8
:03021F00090000D3
:10000E00E4FBFA758901758CFC758A66D28CD2AFC9
:10001E00D2A9D2A8D288D2A5E510B401FBE4F5107E
:10002E00E50F75F014847A00FBE4F50FFC7D0AAF42
:10003E0003FE1201BA74232DF58274023CF583E49B
:10004E0093F50B7C007D0AAF037E001201BA7C0093
:10005E007D0A1201BA74232DF58274023CF583E4F5
:10006E0093F50C7C007D64AF037E001201BA7C0018
:10007E007D0A1201BA74232DF58274023CF583E4D5
:10008E0093F50D7C037DE8AF037E001201BA7C0070
:10009E007D0A1201BA74232DF58274023CF583E4B5
:0600AE0093F50E0200268E
:03000B00020140AF
:08014000C0E0C083C082C0D002
:10014800758CFC758A66050AE50A70020509C39470
:1001580088E50994134009750900750A00751001AE
:100168007580FFE50814601814602314602E2403BA
:100178007037900230E493F5A0850B80050880293C
:1001880090022FE493F5A0850C800508801B90024F
:100198002EE493F5A0850D800508800D90022DE4CE
:0901A80093F5A0850E8075080096
:0901B100D0D0D082D083D0E0321E
:03000300020006F2
:03000600050F32B1
:1000C00002000EE493A3F8E493A34003F68001F248
:1000D00008DFF48029E493A3F85407240CC8C33341
:1000E000C4540F4420C8834004F456800146F6DF10
:1000F000E4800B010204081020408090020FE47E8F
:10010000019360BCA3FF543F30E509541FFEE49304
:10011000A360010ECF54C025E060A840B8E493A3CB
:10012000FAE493A3F8E493A3C8C582C8CAC583CAF6
:10013000F0A3C8C582C8CAC583CADFE9DEE780BEAE
:0102220000DB
:1001BA00BC000BBE0029EF8DF084FFADF022E4CC29
:1001CA00F875F008EF2FFFEE33FEEC33FCEE9DECF2
:1001DA00984005FCEE9DFE0FD5F0E9E4CEFD22ED38
:1001EA00F8F5F0EE8420D21CFEADF075F008EF2F82
:1001FA00FFED33FD4007985006D5F0F222C398FD73
:05020A000FD5F0EA220F
:00000001FF
